{
  "transactions": [
    {
      "hash": "0x96a9609b387de161e058a19cee01f910553552fc2beabbbc58c9da0d4bcf8897",
      "transactionType": "CALL",
      "contractName": null,
      "contractAddress": "0x923588e24d5f4d373c9514ca04e2fe219c874638",
      "function": "approve(address,uint256)",
      "arguments": [
        "0xd730952a12c77ff1dF38950B274c73D3317C6fe6",
        "5000000000000000000000000"
      ],
      "transaction": {
        "from": "0xf1018bebc42c2b78b3890cfaceebbdb983c74816",
        "to": "0x923588e24d5f4d373c9514ca04e2fe219c874638",
        "gas": "0xf042",
        "value": "0x0",
        "input": "0x095ea7b3000000000000000000000000d730952a12c77ff1df38950b274c73d3317c6fe60000000000000000000000000000000000000000000422ca8b0a00a425000000",
        "nonce": "0x6",
        "chainId": "0x66eee"
      },
      "additionalContracts": [],
      "isFixedGasLimit": false
    },
    {
      "hash": "0x0942a84fd7bcce4992c614637b9239f5076dc2668cc73682899bad007a281fa0",
      "transactionType": "CALL",
      "contractName": null,
      "contractAddress": "0xd730952a12c77ff1df38950b274c73d3317c6fe6",
      "function": "deposit(uint256,address)",
      "arguments": [
        "5000000",
        "0xF1018bEbC42c2b78B3890cfacEeBbDb983c74816"
      ],
      "transaction": {
        "from": "0xf1018bebc42c2b78b3890cfaceebbdb983c74816",
        "to": "0xd730952a12c77ff1df38950b274c73d3317c6fe6",
        "gas": "0x27ca8",
        "value": "0x0",
        "input": "0x6e553f6500000000000000000000000000000000000000000000000000000000004c4b40000000000000000000000000f1018bebc42c2b78b3890cfaceebbdb983c74816",
        "nonce": "0x7",
        "chainId": "0x66eee"
      },
      "additionalContracts": [],
      "isFixedGasLimit": false
    }
  ],
  "receipts": [
    {
      "status": "0x1",
      "cumulativeGasUsed": "0xb6d4",
      "logs": [
        {
          "address": "0x923588e24d5f4d373c9514ca04e2fe219c874638",
          "topics": [
            "0x8c5be1e5ebec7d5bd14f71427d1e84f3dd0314c0f7b2291e5b200ac8c7c3b925",
            "0x000000000000000000000000f1018bebc42c2b78b3890cfaceebbdb983c74816",
            "0x000000000000000000000000d730952a12c77ff1df38950b274c73d3317c6fe6"
          ],
          "data": "0x0000000000000000000000000000000000000000000422ca8b0a00a425000000",
          "blockHash": "0x397947bbf3722a8c207f222401bb8e64d984a1321252e3f0677a052641fa1978",
          "blockNumber": "0x593088a",
          "transactionHash": "0x96a9609b387de161e058a19cee01f910553552fc2beabbbc58c9da0d4bcf8897",
          "transactionIndex": "0x1",
          "logIndex": "0x0",
          "removed": false
        }
      ],
      "logsBloom": "0x00000000000000080000000000000000000000000000000000000000000000000000000000000000000000000000000000000000000000000000000000200000000000000000000000000000000000000000000001000000000000000000100000000000000020000000000000000000000000000020000000000000004000000010000000000000000000000000000000000000000000000000000000200000020000000000000000000000000000000000000000000000000004000000000000000000000000000000000000000000000000000000000000000000000000000010000000000000000000000000000000000000000000000000000000000000",
      "type": "0x2",
      "transactionHash": "0x96a9609b387de161e058a19cee01f910553552fc2beabbbc58c9da0d4bcf8897",
      "transactionIndex": "0x1",
      "blockHash": "0x397947bbf3722a8c207f222401bb8e64d984a1321252e3f0677a052641fa1978",
      "blockNumber": "0x593088a",
      "gasUsed": "0xb6d4",
      "effectiveGasPrice": "0x5f5e100",
      "blobGasUsed": "0x0",
      "from": "0xf1018bebc42c2b78b3890cfaceebbdb983c74816",
      "to": "0x923588e24d5f4d373c9514ca04e2fe219c874638",
      "contractAddress": null,
      "gasUsedForL1": "0x1a5",
      "l1BlockNumber": "0x6aaabf"
    },
    {
      "status": "0x1",
      "cumulativeGasUsed": "0x1b4fb",
      "logs": [
        {
          "address": "0x923588e24d5f4d373c9514ca04e2fe219c874638",
          "topics": [
            "0xddf252ad1be2c89b69c2b068fc378daa952ba7f163c4a11628f55a4df523b3ef",
            "0x000000000000000000000000f1018bebc42c2b78b3890cfaceebbdb983c74816",
            "0x000000000000000000000000d730952a12c77ff1df38950b274c73d3317c6fe6"
          ],
          "data": "0x00000000000000000000000000000000000000000000000000000000004c4b40",
          "blockHash": "0x5e5abb148e07a331dafd9785332724b63cb76ab5442189aa8b7ce0d3b25935b5",
          "blockNumber": "0x5930898",
          "transactionHash": "0x0942a84fd7bcce4992c614637b9239f5076dc2668cc73682899bad007a281fa0",
          "transactionIndex": "0x1",
          "logIndex": "0x0",
          "removed": false
        },
        {
          "address": "0xd730952a12c77ff1df38950b274c73d3317c6fe6",
          "topics": [
            "0xddf252ad1be2c89b69c2b068fc378daa952ba7f163c4a11628f55a4df523b3ef",
            "0x0000000000000000000000000000000000000000000000000000000000000000",
            "0x000000000000000000000000f1018bebc42c2b78b3890cfaceebbdb983c74816"
          ],
          "data": "0x00000000000000000000000000000000000000000000000000000000004c4b40",
          "blockHash": "0x5e5abb148e07a331dafd9785332724b63cb76ab5442189aa8b7ce0d3b25935b5",
          "blockNumber": "0x5930898",
          "transactionHash": "0x0942a84fd7bcce4992c614637b9239f5076dc2668cc73682899bad007a281fa0",
          "transactionIndex": "0x1",
          "logIndex": "0x1",
          "removed": false
        },
        {
          "address": "0xd730952a12c77ff1df38950b274c73d3317c6fe6",
          "topics": [
            "0xdcbc1c05240f31ff3ad067ef1ee35ce4997762752e3a095284754544f4c709d7",
            "0x000000000000000000000000f1018bebc42c2b78b3890cfaceebbdb983c74816",
            "0x000000000000000000000000f1018bebc42c2b78b3890cfaceebbdb983c74816"
          ],
          "data": "0x00000000000000000000000000000000000000000000000000000000004c4b4000000000000000000000000000000000000000000000000000000000004c4b40",
          "blockHash": "0x5e5abb148e07a331dafd9785332724b63cb76ab5442189aa8b7ce0d3b25935b5",
          "blockNumber": "0x5930898",
          "transactionHash": "0x0942a84fd7bcce4992c614637b9239f5076dc2668cc73682899bad007a281fa0",
          "transactionIndex": "0x1",
          "logIndex": "0x2",
          "removed": false
        }
      ],
      "logsBloom": "0x00000000000000080000000000000000000000000000000000000000000000000000000000000000000000000000000000000000000000000000000000000000000000400000000000000008000000000000000001000000000000000000100000000000020020000000000000000800000000000024000000000010004000000010000000000000000000000000000000000000000000000000008000200000000000000000000000000000000000000000000000000000000004000000000000000002000000000000000000000000000000000008000080000000000020000000000000000000000000000000000001000000000000000000000000000000",
      "type": "0x2",
      "transactionHash": "0x0942a84fd7bcce4992c614637b9239f5076dc2668cc73682899bad007a281fa0",
      "transactionIndex": "0x1",
      "blockHash": "0x5e5abb148e07a331dafd9785332724b63cb76ab5442189aa8b7ce0d3b25935b5",
      "blockNumber": "0x5930898",
      "gasUsed": "0x1b4fb",
      "effectiveGasPrice": "0x5f5e100",
      "blobGasUsed": "0x0",
      "from": "0xf1018bebc42c2b78b3890cfaceebbdb983c74816",
      "to": "0xd730952a12c77ff1df38950b274c73d3317c6fe6",
      "contractAddress": null,
      "gasUsedForL1": "0x1a8",
      "l1BlockNumber": "0x6aaac0"
    }
  ],
  "libraries": [],
  "pending": [],
  "returns": {},
  "timestamp": 1730469227,
  "chain": 421614,
  "commit": "0c45565"
}